:020000040800F2
:1000000000050020450100085D0A0008550A0008A7
:10001000590A00084107000899170008000000006D
:10002000000000000000000000000000291300088C
:100030004507000800000000C90C0008691400080A
:10004000A91700089D0C000841150008290E00089A
:100050005F0100085F010008590700085F01000800
:100060005F0100085F0100087D0700085F010008CC
:100070005F0100085F0100085F0100085F010008E0
:100080005F0100085F010008A90600085F01000881
:100090005F0100085F0100085F0100085F010008C0
:1000A0005F0100085F0100085F0100087515000886
:1000B000B91500085F0100085F0100085F01000832
:1000C0005F0100085F0100085F0100085F01000890
:1000D0005F0100085F0100085F0100085F01000880
:1000E0005F0100085F0100085F0100085F01000870
:1000F0005F0100085F0100085F0100085F01000860
:100100005F0100085F0100085F0100085F0100084F
:100110005F0100085F0100085F0100085F0100083F
:100120005F0100085F0100085F0100085F0100082F
:10013000DFF80CD000F0A6FA004800476D21000857
:10014000000500200648804706480047FEE7FEE716
:10015000FEE7FEE7FEE7FEE7FEE7FEE7FEE7FEE777
:10016000E1140008310100082DE9FE4F804681EAC4
:100170000300C00F0C46009021F0004123F0004521
:10018000B8EB0200A94105D24046214690461C46E4
:100190000B46024623F00040104347D0270DC7F31B
:1001A0000A00C3F30A510290401A019040286BDA0A
:1001B000C3F3130040F4801B0098924620B1002343
:1001C000D2EB030A63EB0B0B01985946C0F14002D6
:1001D000504600F098F906460D4650465946019A99
:1001E00000F0B0F910EB08006141002487EA1152D9
:1001F00084EAE7731A4340D0009A62B3019A012A55
:100200004FEA075215DC001B61EB02014FF0004280
:1002100002EA0752CDE90042001C41F58011324646
:100220002B4600F0B0F903B0BDE8F08F4046214600
:10023000F9E7001B61EB0201001C41F58013001877
:100240005B412018A2F5001747EB030140EAD57087
:10025000B6196D4111E06D084FEA360645EAC075E2
:100260004FEA0752001B61EB0201001C41F58011AF
:1002700049084FEA30000019514132462B4603B07D
:10028000BDE8F04F00F070B9009801224000002353
:10029000D0EB020263EBE073009821464FEAE07472
:1002A000B8EB000061EB0401E9E783F000435BE792
:1002B00081F0004158E72DE9FE4F81EA030404F084
:1002C000004421F0004100944FF0000B23F0004364
:1002D00050EA01045ED052EA03045BD0C3F30A542F
:1002E000C1F30A552C44A4F2F3340194A0FB025448
:1002F000C1F3130141F48011C3F3130343F48013DA
:1003000001FB024400FB034E840A970A44EA81542D
:1003100047EA8357A4FB076802958D0A05FB07850A
:100320004FEA932C04FB0C542705029D4FEA065814
:1003300047EA1637B5EB08056EEB070C870E920EF1
:1003400047EA811742EA8312A7FB0201B6EB0B01D1
:1003500064EB00042B0D43EA0C335E1844EB1C5095
:10036000DA465146E7FB0201C5F313044FEA0B33AB
:1003700043EA14534FEA0432019C43EA0603A4F112
:100380000C040294009CCDE900B400F0FCF803B02A
:10039000BDE8F08F00200146F9E72DE9F04D81EA34
:1003A000030404F0004B21F0004514464FF0000A0E
:1003B00023F0004150EA050220D054EA01021DD08A
:1003C000C5F30A570246C5F31303C1F31300C1F383
:1003D0000A5640F4801543F48013A7EB0608101B5F
:1003E000D64608F2FD3873EB050002D308F1010888
:1003F00001E092185B41B8F1000F03DA00200146DA
:10040000BDE8F08D00204FF48011064684460EE0D2
:10041000171B73EB050705D3121B63EB050306439C
:100420004CEA010C49084FEA300092185B4150EA4F
:100430000107EDD152EA030012D082EA040083EAF8
:100440000501084305D0101BAB4106D20122002351
:1004500006E000224FF0004302E06FF0010253106B
:100460001AEB06004CEB085110EB0A0041EB0B01B4
:10047000BDE8F04D00F078B830B50B4601460020DD
:100480002022012409E021FA02F59D4205D303FA56
:1004900002F5491B04FA02F52844151EA2F10102D7
:1004A000F1DC30BD2DE9F05F0546002092469B4609
:1004B00088460646814640241BE02846414647467A
:1004C000224600F02FF853465A46C01A914110D3E5
:1004D00011461846224600F016F82D1A67EB01085F
:1004E0004F4622460120002100F00DF817EB0009CD
:1004F0004E41201EA4F10104DFDC484631462A4665
:100500004346BDE8F09F202A04DB203A00FA02F1BE
:10051000002070479140C2F1200320FA03F31943F1
:1005200090407047202A04DB203A21FA02F0002193
:10053000704721FA02F3D040C2F1200291400843F3
:1005400019467047202A06DBCB17203A41FA02F001
:1005500043EAE07306E041FA02F3D040C2F1200220
:10056000914008431946704710B5141E73F10004FA
:1005700008DA401C41F1000192185B411A4301D195
:1005800020F0010010BD2DE9F04D92469B4611B1BF
:10059000B1FA81F202E0B0FA80F220329046FFF721
:1005A000B2FF04460F4640EA0A0041EA0B015346F7
:1005B0005A46084313D0114653EA010019D0C8F136
:1005C00040025046FFF7AEFF05460E4650465946DC
:1005D0004246FFF798FF084305D0012004E020467B
:1005E0003946BDE8F08D0020054346EAE0762C430D
:1005F00037430A986305E40AA0EB08000022FD0ACD
:1006000044EA47540A3002D500200146E9E70105D3
:1006100010196941DDE9084500196941BDE8F04D4F
:10062000A2E7C1F30A52C1F3130140F2FF3341F4D0
:1006300080119A4202DA00200146704740F23343AB
:100640009A42A2F2334202DC5242FFF76BBFFFF73D
:100650005ABF000030B5041E71F1000404DB4FF0F6
:100660000044404264EB0101141E73F1000405DBF9
:100670001C464FF00043524263EB0403994208BF0B
:10068000904230BD064C074D06E0E06840F00103A3
:1006900094E8070098471034AC42F6D3FFF74CFDBE
:1006A0003C2200085C22000810B54FF4087107488E
:1006B00000F019F848B1054800F011F80449088025
:1006C0004FF40871014800F005F810BD0024014006
:1006D0001400002000220A12D34303607047014631
:1006E000C86C80B2704770B5024600200023002419
:1006F0000B125568CEB205EA060415681D4015B107
:100700000CB1012000E0002070BD0000034800880B
:1007100040F001000149088070470000346C00403F
:100720000348008840F0020001490880704700003B
:10073000346C004001480068C0B27047A4860D4286
:1007400000BFFEE7704701B502E00098401E009030
:1007500000980028F9D108BD10B5012000F064F818
:1007600040B10548006880F020000349086001207E
:1007700000F054F810BD00000C0C014070B51020C2
:1007800000F052F801282FD1102000F047F8202166
:100790001C4800F05BF9072000F06EFD05461A4882
:1007A000058000884010184908800846007800F04D
:1007B000070008800846018814A000F0F9FF2946C8
:1007C000272000F097FD05F0400040B1202210499D
:1007D000612000F02DFDFF21E22000F08BFD2021A3
:1007E000084800F035F900BF002405E00848015D25
:1007F00008A000F0DDFF641C202CF7D306A000F059
:10080000D7FF70BD001001403A00002025780A0093
:10081000E000002025642C000A0000000149086067
:100820007047000014040140014600200022074BDD
:100830001B6803EA0102054B14331B680B4013B11C
:100840000AB1012000E000207047000000040140D0
:10085000002123498279002A3AD00A4612680368A7
:100860009A430B461A600A1D126803689A430B1DCF
:100870001A60027911440A6803681A430A60184A28
:100880000832126803689A43154B08331A601A1D20
:10089000126803689A43124B0C331A604279102A8B
:1008A0000ED11A1F126803681A430D4B08331A60E1
:1008B0001A1D126803681A43094B0C331A600DE0C5
:1008C0000749427911440A6803681A430A6005E03F
:1008D000027911440A6803689A430A60704700006D
:1008E0000004014030B500228B071C0F0F2303FAD0
:1008F00004F20B4B8C1053F824309343084C8D10AA
:1009000044F8253023468C1053F824308C07240FEC
:1009100000FA04F42343024C8D1044F8253030BD16
:10092000080001402DE9F041024600250026002084
:1009300000230024002791F803C00CF00F0591F864
:1009400003C00CF0100CBCF1000F03D091F802C0F2
:100950004CEA050591F800C0BCF1000F31D01468D5
:1009600000202BE04FF0010C0CFA00F3B1F800C0AE
:100970000CEA03069E4220D183004FF00F0C0CFAC4
:1009800003F7BC4305FA03FC4CEA040491F803C0E6
:10099000BCF1280F06D14FF0010C0CFA00FCC2F894
:1009A00014C00AE091F803C0BCF1480F05D14FF024
:1009B000010C0CFA00FCC2F810C0401C0828D1D36E
:1009C0001460B1F800C0BCF1FF0F34DD54680020A2
:1009D0002EE000F1080C4FF0010808FA0CF3B1F812
:1009E00000C00CEA03069E4221D183004FF00F0C99
:1009F0000CFA03F7BC4305FA03FC4CEA040491F833
:100A000003C0BCF1280F05D100F1080C08FA0CF85E
:100A1000C2F8148091F803C0BCF1480F07D100F16F
:100A2000080C4FF0010808FA0CF8C2F81080401CBE
:100A30000828CED35460BDE8F081024600209368B8
:100A40000B400BB1012000E000207047416170476E
:100A50000161704700BFFEE700BFFEE7704700007E
:100A600010B580211648FFF7F1FF05221549302007
:100A700000F00AFB052213492A2000F005FB0121A2
:100A8000212000F029FB0021222000F025FB1A2163
:100A9000242000F021FB2821252000F01DFB0F2140
:100AA000262000F019FB0E21202000F015FB8021EC
:100AB0000348FFF7CDFF4FF6FF70FFF744FE10BD70
:100AC000001001402A00002070B50546802116481C
:100AD000FFF7BCFF20222946A02000F0D5FA802194
:100AE0001148FFF7B5FF00BF4FF480510F48FFF7E3
:100AF000A4FF0028F8D1072000F0A8FA04462146F8
:100B0000272000F0E9FAFF21E12000F0E5FA04F0E7
:100B1000100008B1102070BD04F0200008B12020A2
:100B2000F9E70020F7E7000000100140000C014049
:100B300010B520211648FFF789FF052215492B2003
:100B400000F0B4FB012214492C2000F0AFFB04217B
:100B5000212000F0CFFB0421222000F0CBFB282134
:100B6000252000F0C7FB2021332000F0C3FB20210B
:100B7000322000F0BFFB0F21262000F0BBFB0F212D
:100B8000202000F0B7FB20210148FFF761FF10BDD6
:100B9000001001402F000020340000200EB500F0AE
:100BA00027F80121112000F0A1F848208DF80B0052
:100BB0001020ADF8080003208DF80A0002A90B48A8
:100BC000FFF7B0FE04210220FFF78CFE10200090FA
:100BD00001208DF8060000208DF804000C208DF80F
:100BE00005006846FFF734FE0EBD0000001001400E
:100BF00008B54FF4C06000F047F80A208DF80000F7
:100C000001208DF803008DF801008DF80200684680
:100C100000F002F808BD000070B5002100230F228B
:100C2000C47804B3154C246804F4E064C4F5E064AB
:100C3000210AC1F10403CA40447804FA03F184781C
:100C40001440214309010E4C0678A155047804F0A4
:100C50001F050124AC4005786D11AD0005F1E025BC
:100C6000C5F8004109E0047804F01F050124AC40F8
:100C7000044D0678761145F8264070BD0CED00E075
:100C800000E400E080E100E002490143024A116013
:100C9000704700000000FA050CED00E010B50420DC
:100CA00000F006F84FF48030FFF7B8FD10BD0000EB
:100CB00001460020034A52680A400AB1012000E0C0
:100CC00000207047007000407047000029B1064ABC
:100CD000D2690243044BDA6104E0034AD2698243D9
:100CE000014BDA61704700000010024029B1064A4A
:100CF00092690243044B9A6104E0034A9269824379
:100D0000014B9A61704700000010024030B500218D
:100D10000022002400232D4D6D6805F00C0121B147
:100D2000042905D0082923D105E0294D056022E0DA
:100D3000274D05601FE0254D6D6805F47012234DA9
:100D40006D6805F48034022505EB92421CB9214DF3
:100D5000554305600BE01D4D6D6805F400351DB170
:100D60001C4D5543056002E0194D5543056002E0F6
:100D7000174D056000BF00BF144D6D6805F0F00110
:100D80000909154D6B5C0568DD4045600F4D6D68C8
:100D900005F4E061090A104D6B5C4568DD40856033
:100DA0000A4D6D6805F46051C90A0B4D6B5C4568CE
:100DB000DD40C560054D6D6805F44041890B074D68
:100DC0006B5CC568B5FBF3F5056130BD00100240F2
:100DD00000127A0000093D001600002026000020C5
:100DE000024909888143014A118070470428004064
:100DF000002103480188001F008841EA0040704735
:100E00001C28004001460020064A12880A40D0B241
:100E1000044A121F12880A4012B108B1012000E0F2
:100E2000002070470428004010B50120FFF7EAFFBA
:100E3000012809D1FFF7D4FFFFF7DAFF0446214666
:100E400008A000F0B5FC10BD0220FFF7DBFF012871
:100E500005D10220FFF7C4FF03A000F0A9FC00BFEA
:100E6000F1E7000025642000C4D6D6D3B2FAC9FA4F
:100E70000000000021B1028842F04002028004E03C
:100E800002884FF6BF731A40028070470246002066
:100E900013890B400BB1012000E000207047014690
:100EA000888970478181704710B50022028802F45A
:100EB00041520B884C8823438C882343CC8823439E
:100EC0000C8923434C8923438C892343CC892343B6
:100ED0001A430280838B4FF2FF74234083830B8A73
:100EE000038210BD00B587B001211820FFF7FEFE78
:100EF00001218803FFF7EAFE4FF46040ADF80400DB
:100F000001208DF8060018208DF8070001A92A4855
:100F1000FFF708FD4FF48070ADF8040001208DF854
:100F2000060010208DF8070001A92348FFF7FAFCFE
:100F30008020ADF8040001208DF8060010208DF807
:100F4000070001A91D48FFF7EDFC0820ADF80400DB
:100F500001208DF8060048208DF8070001A91648E9
:100F6000FFF7E0FC4FF480711348FFF771FD00209C
:100F7000ADF808004FF48270ADF80A000020ADF81B
:100F80000C00ADF80E00ADF810004FF40070ADF895
:100F900012001020ADF814000020ADF81600072054
:100FA000ADF8180002A90648FFF77EFF01210448AA
:100FB000FFF760FF07B000BD000C014000100140CA
:100FC0000038004010B5044600BF02210A48FFF770
:100FD0005DFF0028F9D021460748FFF763FF00BFF7
:100FE00001210548FFF752FF0028F9D00248FFF71A
:100FF00056FFC0B210BD0000003800402DE9F0419E
:1010000007460D46164680210E48FFF71FFD4FF498
:1010100080710D48FFF71AFD3846FFF7D3FF804671
:10102000002405E0FF20FFF7CDFF2855601CC4B267
:10103000B442F7DB4FF480710348FFF709FD4046E7
:10104000BDE8F08100100140000C014070B504467D
:1010500080210B48FFF7FAFC4FF480710948FFF735
:10106000F5FC2046FFF7AEFFFF20FFF7ABFF05467C
:101070004FF480710348FFF7EBFC284670BD000079
:1010800000100140000C01402DE9F04107460C46DC
:10109000154680210E48FFF7D9FC4FF480710D48AA
:1010A000FFF7D4FC3846FFF78DFF8046002605E0A9
:1010B00014F8010BFFF786FF701CC6B2AE42F7DBD7
:1010C0004FF480710348FFF7C3FC4046BDE8F08150
:1010D00000100140000C014070B505460C4680210F
:1010E0000A48FFF7B3FC4FF480710948FFF7AEFCE4
:1010F0002846FFF767FF06462046FFF763FF4FF4D9
:1011000080710348FFF7A4FC304670BD0010014019
:10111000000C014008B501211420FFF7E7FD402035
:10112000ADF8000001208DF8020010208DF80300BA
:1011300069462448FFF7F6FB2020ADF800000120A7
:101140008DF8020010208DF8030069461D48FFF756
:10115000E9FB1020ADF8000001208DF802004820C6
:101160008DF8030069461748FFF7DCFB402115485E
:10117000FFF76EFC2020ADF8000003208DF8020080
:1011800010208DF8030069460F48FFF7CBFB802045
:10119000ADF8000003208DF8020010208DF8030048
:1011A00069460948FFF7BEFB4020ADF80000032068
:1011B0008DF8020048208DF8030069460248FFF7C9
:1011C000B1FB08BD001001400008014010B5014608
:1011D0000020002221E00023134C236000BF01F017
:1011E000800323B10123104C0834236003E0002363
:1011F0000D4C083423604B06190E01230A4C236062
:101200004306180E094BD3F8183113B140F0010012
:1012100000E000BF00BF531CDAB2082ADBDB00236A
:10122000014C236010BD00009401214200002142C6
:101230002DE9F04107460D46164620210D48FFF7DF
:1012400005FC40210B48FFF701FC3846FFF7BEFFC5
:101250008046002405E0FF20FFF7B8FF2855601CFA
:10126000C4B2B442F7DB40210248FFF7F1FB40462D
:10127000BDE8F0810010014070B5044620210A4805
:10128000FFF7E4FB40210848FFF7E0FB2046FFF7AB
:101290009DFFFF20FFF79AFF054640210248FFF718
:1012A000D7FB284670BD0000001001402DE9F04139
:1012B00007460C46154620210D48FFF7C7FB402185
:1012C0000B48FFF7C3FB3846FFF780FF8046002638
:1012D00005E014F8010BFFF779FF701CC6B2AE42AF
:1012E000F7DB40210248FFF7B3FB4046BDE8F08141
:1012F0000010014070B505460C4620210948FFF753
:10130000A5FB40210748FFF7A1FB2846FFF75EFF3A
:1013100006462046FFF75AFF40210248FFF798FB98
:10132000304670BD00100140704710B500F002F863
:1013300010BD00000CB500200190009033480068FB
:1013400040F480303149086000BF3048006800F444
:10135000003000900198401C0190009818B9019845
:10136000B0F5A06FF1D12948006800F4003010B149
:101370000120009001E0002000900098012843D156
:101380002348006840F010002149086008460068C2
:1013900020F0030008600846006840F00200086082
:1013A0001A4840681949486008464068486008463D
:1013B000406840F4806048600846406820F47C1033
:1013C00048600846406840F4E810486008460068F5
:1013D00040F08070086000BF0C48006800F00070AA
:1013E0000028F9D00948406820F003000749486008
:1013F0000846406840F00200486000BF034840686B
:1014000000F00C000828F9D10CBD000000100240CB
:101410000020024030B50146481EB0F1807F01D364
:10142000012030BD481E4FF0E022506150170F22BE
:10143000002804DB13071C0E094B1C5406E013079D
:101440001D0E084B00F00F04241F1D5500BF002087
:101450004FF0E0229061072010610020E1E70000DA
:1014600000E400E018ED00E010B500F021F800F015
:101470002BF810BD70B504460C48FFF7CBFF0025D4
:1014800008E000BF4FF0E020006900F48030002841
:10149000F8D06D1CA542F4D34FF0E020006920F095
:1014A00001004FF0E021086170BD0000401901000B
:1014B0000448006820B103480068401E01490860E4
:1014C00070470000000000200448006820B1034875
:1014D0000068401E014908607047000004000020B9
:1014E00010B51348006840F0010011490860084633
:1014F0004068104908400E494860084600680E4997
:1015000008400B4908600846006820F48020086005
:101510000846406820F4FE0048604FF41F008860D1
:10152000FFF703FF4FF000600449086010BD0000A2
:10153000001002400000FFF8FFFFF6FE08ED00E09B
:1015400010B5FFF7F7F8012806D1FFF7DFF8FFF72E
:10155000E7F802A000F02CF910BD000054616D7096
:1015600065722069732068696768206C6576656CB0
:101570000000000010B502210B4800F068F80128B7
:1015800010D10221084800F059F8074800F059F836
:1015900006490880044800F057F8054908800120F2
:1015A0000449087010BD0000002C01400800002014
:1015B0000A0000200C00002010B50121880700F06F
:1015C00046F8012808D10121800700F037F81A48B1
:1015D0004088401C184948800221480700F037F82D
:1015E000012828D10221800700F028F8124840780D
:1015F00070B900214FF0804000F043F801200E49FF
:101600004870002048800221480700F031F812E0BD
:101610000948407801280ED10020074948704FF052
:10162000804000F00EF804498880012008700021F5
:10163000800700F01DF810BD0E000020CA43028292
:1016400070470146888E70470146088F704730B555
:101650000246002000230024158A05EA010395892B
:1016600005EA010413B10CB1012000E0002030BDF7
:101670000A460021018C4FF6FD7319401143018485
:1016800070478184704721B1828942F4005282817F
:1016900004E082894DF6FF731A408281704702464A
:1016A0000020B1F5007F00D100BF13880B400BB1C3
:1016B000012000E0002070472DE9F04786B0054684
:1016C0000E460024A24600BFA1460027B08900B103
:1016D00000BF2F462C8A4CF6FF700440F08804436C
:1016E0002C82AC894EF6F3100440B088318908434F
:1016F000718908430443AC81AC8A4FF6FF40044033
:10170000B0890443AC8201A8FFF700FB1F48874261
:1017100002D1DDF810A001E0DDF80CA0A88900F4EA
:10172000004040B10AEBCA0000EB0A1031684900E2
:10173000B0FBF1F807E00AEBCA0000EB0A103168D1
:101740008900B0FBF1F86420B8FBF0F00401200937
:10175000642101FB1089A88900F4004040B13220C7
:1017600000EBC900B0FBF1F000F00700044308E013
:10177000322000EB09106421B0FBF1F000F00F0003
:1017800004432C8106B0BDE8F0870000003801401A
:10179000C1F308028280704700BFFEE700200149C4
:1017A00008607047082C004010B5FFF7F7FF10BD28
:1017B0000FB4054B10B503A9044A029800F0DAF8FB
:1017C00010BC5DF814FB0000492100083C0000201B
:1017D00002E008C8121F08C1002AFAD170477047FA
:1017E000002001E001C1121F002AFBD17047000058
:1017F0002DE9FF5F82B00021DDE90430020DDDF844
:1018000040B0034318D044F61050A2F2FF324243D6
:101810001514119801281FD0A5EB0B00401C5FEA9E
:10182000000A4FF000064E4FDFF83891B0465046A0
:1018300015D5CAF1000413E0119801244AA3012828
:1018400001D16FEA0B010298119AC0E90031C0E999
:10185000024206B0BDE8F09FCBF10000DFE704468E
:101860000021404A491842EB0450CDE9001012E033
:10187000E00707D032463B4640464946FEF71BFD8F
:101880008046894632463B4610461946FEF713FD10
:1018900006460F466410002CEAD1DDE90401DDE9BB
:1018A0000023BAF1000F06DAFEF705FD42464B466B
:1018B000FEF701FD05E0FEF770FD42464B46FEF7E0
:1018C0006CFD04460E460022284BFEF7C3FE03D8EB
:1018D0004FF0FF30014607E00022254B20463146FD
:1018E000FEF742FCFEF79DFE102409E0002C0ADB07
:1018F0000A220023FEF7D6FD039B30321A55641EE0
:1019000050EA0102F2D1641C039AC4F11103144499
:10191000119A012A03D0012208430DD10AE008439D
:1019200004D000204FF0110B119072E7A3EB0B05D0
:101930006D1E0DE05B4504DD4FF0000205F1010571
:1019400004E003DA4FF00002A5F10105002AECD013
:1019500002981199C0E90231C0E9004579E7000019
:10196000000014400000F03F300000000000F04391
:101970000000E03F2DE9FF4F95B09B4689460646A3
:1019800000250FE2252877D100242746F84A0121B7
:10199000059400E0044316F8013F203B01FA03F0F0
:1019A0001042F7D130782A2811D06FF02F03307809
:1019B000A0F13002092A16D8059A44F0020402EB7D
:1019C000820203EB42021044761C0590EFE759F8BF
:1019D000042B0592002A03DA504244F40054059087
:1019E00044F00204761C30782E2816D116F8010F28
:1019F00044F004042A280DD06FF02F023078A0F1B3
:101A00003003092B09D807EB870302EB4303C71800
:101A1000761CF3E759F8047B761C30786C280FD0DD
:101A200006DC4C2817D068280DD06A2814D104E0B1
:101A3000742810D07A280FD10DE044F400140AE085
:101A400044F4801401E044F440147278824202D1DC
:101A500004F58014761C761C307866280BD013DCD5
:101A6000582877D009DC002875D04528F6D04628BC
:101A7000F4D047281AD19DE118E0632835D06428B6
:101A800079D0652812D195E1702873D008DC6728D9
:101A9000F1D069286FD06E280DD06F2806D1B5E03F
:101AA00073282CD0752875D0782874D05A46179989
:101AB00090476D1C75E1C4F30250022809D0032839
:101AC0000DD0D9F8001004280DD00D6009F10409DB
:101AD00067E1D9F80010EA17C1E90052F6E7D9F832
:101AE00000100D80F2E70D70F0E719F8041B8DF877
:101AF000001000208DF80100EA46012003E059F8AB
:101B000004AB4FF0FF3061074FF0000102D40DE04D
:101B100008F101018846B9420FDA8045F8DB1AF86E
:101B200008100029F4D108E008F10101884681423B
:101B3000FADB1AF808100029F6D105985B46A0EBED
:101B4000080721463846179A00F094FA284400EB1B
:101B5000080507E04DE029E10DE01AF8010B5A46AF
:101B600017999047B8F10108F7D25B4621463846ED
:101B7000179A13E142E00A220092C4F302524FF096
:101B8000000A022A08D059F804CB032A4FEAEC7164
:101B90000AD00DE029E02AE009F1070121F007024F
:101BA000F2E802C1914609E00FFA8CFC4FEAEC71B1
:101BB000042A03D14FFA8CFC4FEAEC71002907DAB2
:101BC0000A460021DCF1000C61EB02012D2202E04B
:101BD000220504D52B228DF80420012203E0E20720
:101BE00001D02022F7E7904659E00A2102E01022B6
:101BF0000DE010214FF0000A00910BE010224FF091
:101C0000000A44F004040827009203E008224FF081
:101C1000000A0092C4F30252022A05D059F804CBFC
:101C20000021032A08D009E009F1070121F0070289
:101C3000F2E802C1914605E01FFA8CFC042A01D1AA
:101C40000CF0FF0C4FF00008220728D5702806D0B2
:101C5000009B83F0100353EA0A0305D00EE04022F4
:101C60008DF80420012208E05CEA010206D030224F
:101C70008DF804208DF8050002229046009B83F029
:101C8000080353EA0A030AD15CEA010201D16207A0
:101C900005D530228DF804204FF001087F1E58280A
:101CA00004D034A003900EA802900DE036A0F9E70E
:101CB00053466046009AFEF7F5FB84460398825C23
:101CC0000298401E029002705CEA0100F0D1029876
:101CD00006A9081A00F1200A600702D524F480340E
:101CE00000E00127574502DDA7EB0A0000E00020D5
:101CF00000EB0A01009005984144401A0590E0036A
:101D000006D45B462146179A059800F0B3F90544BE
:101D1000002706E001A85A46C05D179990476D1C40
:101D20007F1C4745F6DBE0030CD55B462146179A3E
:101D3000059800F09FF9054404E030205A461799B1
:101D400090476D1C0099481E00900029F5DC08E0C2
:101D5000029802995A460078491C029117999047B7
:101D60006D1CBAF10001AAF1010AF1DC65E1000085
:101D70000928010030313233343536373839616261
:101D80006364656600000000303132333435363725
:101D900038394142434445460000000000F058F9FC
:101DA0000544761C307800287FF4ECAD19B0284645
:101DB000BDE8F08F620700D4062709F1070222F080
:101DC000070CFCE80223E14603F000485FEA080C38
:101DD00002D00FF2702C0DE05FEA045C02D50FF226
:101DE000682C07E05FEAC47C02D00FF2602C01E0AF
:101DF000AFF2700C4FF0FF3823F00043CDF850C025
:101E000065280CD006DC452809D046281DD0472877
:101E10003DD13DE0662818D067287ED138E000210A
:101E2000112F01DB112000E0781CCDE9000106A98B
:101E30000EA8FFF7DDFCDDE90F010E9A03910021EA
:101E4000009207F1010A04914DE04FF00040009725
:101E5000CDE9011006A90EA8FFF7CAFCDDE90F02C3
:101E600003920E9B11990022DDF80CA000930492BE
:101E700011B9791C00EB010AB7EB0A0004D4C0F1D8
:101E8000FF3007F1010A0490AAEB0700019044E03B
:101E9000012F00DA01270021112F01DD112000E0C0
:101EA0003846CDE9000106A90EA8FFF7A1FCDDE93F
:101EB0000F010E9A0391002104910092BA46210766
:101EC0000CD40399514500DA8A46BAF1010F05DDB9
:101ED000009AAAF10101515C302908D0B84202DA17
:101EE00010F1040F06DA0121CDE9011015E0AAF185
:101EF0000101E9E7002805DC049901440491AAEBFB
:101F0000000102E0411C514500DD8A460499401A57
:101F1000401C01904FF000400290200704D401982B
:101F2000504501DBCDF8048000208DF84F00029869
:101F30000DF14F07B0F1004F25D02B200E900298E5
:101F40004FF0020800280CDA404202902D200E903B
:101F500007E00A210298FEF78FFA3031029007F865
:101F6000011DB8F10001A8F10108F2DC0298002877
:101F7000EFD1791E0E980870307800F0200040F004
:101F8000450007F8020D12A8C01B00F107081498BD
:101F9000007800B1012000EB0A01019801EBE0712B
:101FA00005984144401A401E0590E00306D45B4664
:101FB0002146179A059800F05DF8054414980078BA
:101FC00018B15A46179990476D1CE00324D55B461B
:101FD0002146179A059800F04DF805441CE0049836
:101FE000002807DBDDE90301884203DD0098405C3F
:101FF000179901E0179930205A469047049805F147
:102000000105401C04900198401E019004D12E202F
:102010005A46179990476D1CBAF10001AAF1010ABE
:10202000DDDC05E017F8010B5A46179990476D1C47
:10203000B8F10001A8F10108F4DC5B462146179ACB
:102040000598ABE62D0000002B00000020000000EA
:102050002DE9F041044600251E461746880404D4A5
:1020600005E039462020B0476D1C641EF9D528468E
:10207000BDE8F0812DE9F041044600251E4690465A
:10208000C80301D5302700E02027880404D505E0E7
:1020900041463846B0476D1C641EF9D52846BDE858
:1020A000F081000010B586B0044601210420FEF73F
:1020B0001DFE01218803FEF719FE18208DF8170078
:1020C0004FF40070ADF8140003208DF8160005A938
:1020D0001348FEF727FC04208DF817000002ADF826
:1020E000140003208DF8160005A90D48FEF71AFC10
:1020F00001940020ADF810000C20ADF80E00002077
:10210000ADF80C00ADF80A00ADF8080001A90548CB
:10211000FFF7D2FA01210348FFF7B5FA06B010BD68
:10212000000801400038014070B504460D462946BC
:102130002046FFF72DFB00BF80212046FFF7AFFAB6
:102140000028F9D070BD000070B504460D46E1B21C
:102150000548FFF7E9FF00BF80210348FFF79FFA1A
:102160000028F9D0204670BD00380140002402E06C
:1021700028490C55641C202CFAD3FEF7CBFFFEF740
:10218000B1FE4FF4E130FFF78DFFFEF769FCFEF77B
:10219000CFFCFEF703FD00242CE0E0B205221E492F
:1021A000FFF746F821461DA0FFF702FB002505E0DA
:1021B0001948415D1BA0FFF7FBFA6D1C052DF7D3F5
:1021C00019A0FFF7F5FAE0B205221849FEF716FF4D
:1021D000214617A0FFF7ECFA002505E01348415D02
:1021E00010A0FFF7E5FA6D1C052DF7D312A0FFF73D
:1021F000DFFA641C182CD0D3FEF732FCFEF798FCF3
:1022000006E00448FEF760FC4FF47A70FFF732F9FD
:10221000F7E700004000002060000020314E5246E9
:1022200025783A0025782C0020200000800000202E
:10223000324E524625783A000A0000005C2200081F
:102240000000002040000000D01700089C22000879
:1022500040000020C0040000E0170008000000005B
:10226000000000000000000000000000000000006E
:10227000000000000000010203040102030406073D
:1022800008090204060834431010013543101001F8
:0C2290003400000000000000000000000E
:0400000508000131BD
:00000001FF
